:020000040800F2
:1000000000000824E5050008E5070008EB070008E4
:10001000F1070008F7070008FD07000800000000CE
:10002000000000000000000000000000E160000887
:10003000030800080000000011610008B560000816
:1000400035060008350600083506000835060008A4
:100050003506000835060008350600083506000894
:100060003506000835060008350600083506000884
:100070003506000835060008350600083506000874
:100080003506000835060008350600083506000864
:100090003506000835060008350600083506000854
:1000A0003506000811080008350600083506000866
:1000B0003506000835060008350600083506000834
:1000C0003506000835060008350600083506000824
:1000D0003506000835060008350600083506000814
:1000E0003506000835060008000000003506000847
:1000F00035060008350600083506000835060008F4
:1001000035060008350600083506000835060008E3
:1001100035060008350600083506000835060008D3
:1001200035060008350600083506000835060008C3
:1001300035060008350600083506000835060008B3
:1001400000000000000000000000000000000000AF
:100150003506000835060008350600083506000893
:100160003506000835060008350600083506000883
:1001700035060008350600083506000800000000B6
:100180003506000835060008350600083506000863
:100190003506000835060008350600083506000853
:1001A0003506000835060008350600083506000843
:1001B0003506000835060008350600083506000833
:1001C0003506000835060008350600083506000823
:1001D0003506000835060008350600083506000813
:1001E0003506000835060008350600083506000803
:1001F00035060008350600083506000835060008F3
:1002000035060008350600083506000835060008E2
:1002100035060008350600083506000835060008D2
:100220003506000835060008350600080000000005
:1002300035060008350600080000000035060008F5
:1002400035060008350600083506000835060008A2
:100250003506000835060008350600083506000892
:100260003506000835060008350600083506000882
:1002700035060008350600083506000800000000B5
:1002800035060008350600083506000800000000A5
:08029000000000003506000823
:1002A00010B5054C237833B9044B13B10448AFF3B0
:1002B00000800123237010BD7000002400000000A6
:1002C0006865000808B5034B1BB103490348AFF349
:1002D000008008BD0000000074000024686500086C
:1002E00053B94AB9002908BF00281CBF4FF0FF319D
:1002F0004FF0FF3000F074B9ADF1080C6DE904CE99
:1003000000F006F8DDF804E0DDE9022304B07047F0
:100310002DE9F047089D04468E46002B4DD18A42B8
:10032000944669D9B2FA82F252B101FA02F3C2F1EB
:10033000200120FA01F10CFA02FC41EA030E94407C
:100340004FEA1C48210CBEFBF8F61FFA8CF708FB9D
:1003500016E341EA034306FB07F199420AD91CEB75
:10036000030306F1FF3080F01F81994240F21C81A7
:10037000023E63445B1AA4B2B3FBF8F008FB1033EF
:1003800044EA034400FB07F7A7420AD91CEB040424
:1003900000F1FF3380F00A81A74240F207816444F4
:1003A000023840EA0640E41B00261DB1D440002379
:1003B000C5E900433146BDE8F0878B4209D9002DDD
:1003C00000F0EF800026C5E9000130463146BDE867
:1003D000F087B3FA83F6002E4AD18B4202D38242D1
:1003E00000F2F980841A61EB030301209E46002D80
:1003F000E0D0C5E9004EDDE702B9FFDEB2FA82F2D5
:10040000002A40F09280A1EB0C014FEA1C471FFA32
:100410008CFE0126200CB1FBF7F307FB131140EA19
:1004200001410EFB03F0884208D91CEB010103F1E6
:10043000FF3802D2884200F2CB804346091AA4B2A8
:10044000B1FBF7F007FB101144EA01440EFB00FE7C
:10045000A64508D91CEB040400F1FF3102D2A645E1
:1004600000F2BB800846A4EB0E0440EA03409CE780
:10047000C6F12007B34022FA07FC4CEA030C20FA2D
:1004800007F401FA06F31C43F9404FEA1C4900FA4D
:1004900006F3B1FBF9F8200C1FFA8CFE09FB1811CA
:1004A00040EA014108FB0EF0884202FA06F20BD93D
:1004B0001CEB010108F1FF3A80F08880884240F28D
:1004C0008580A8F102086144091AA4B2B1FBF9F0D1
:1004D00009FB101144EA014100FB0EFE8E4508D9CC
:1004E0001CEB010100F1FF346CD28E456AD9023851
:1004F000614440EA0840A0FB0294A1EB0E01A14236
:10050000C846A64656D353D05DB1B3EB080261EBA3
:100510000E0101FA07F722FA06F3F1401F43C5E97D
:10052000007100263146BDE8F087C2F12003D840B3
:100530000CFA02FC21FA03F3914001434FEA1C47F5
:100540001FFA8CFEB3FBF7F007FB10360B0C43EAE7
:10055000064300FB0EF69E4204FA02F408D91CEB97
:10056000030300F1FF382FD29E422DD90238634495
:100570009B1B89B2B3FBF7F607FB163341EA034135
:1005800006FB0EF38B4208D91CEB010106F1FF3884
:1005900016D28B4214D9023E6144C91A46EA00467B
:1005A00038E72E46284605E70646E3E61846F8E60D
:1005B0004B45A9D2B9EB020864EB0C0E0138A3E756
:1005C0004646EAE7204694E74046D1E7D0467BE737
:1005D000023B614432E7304609E76444023842E7AF
:1005E000704700BFDFF834D000F01CF90C480D490B
:1005F0000D4A002302E0D458C4500433C4188C427E
:10060000F9D30A4A0A4C002301E013600432A242E3
:10061000FBD305F07DFF00F0E7FE704700000824E3
:100620000000002470000024C86500087000002449
:10063000080A0024FEE7000080B487B000AF284B12
:10064000D3F8E030264A43F02003C2F8E030244BD0
:10065000D3F8E03003F020037B617B69204BD3F8B3
:10066000E0301F4A43F00103C2F8E0301C4BD3F8DE
:10067000E03003F001033B613B69194BD3F8E030F4
:10068000174A43F00203C2F8E030154BD3F8E030CC
:1006900003F00203FB60FB68114BD3F8E030104A13
:1006A00043F04003C2F8E0300D4BD3F8E03003F0E4
:1006B0004003BB60BB680A4BD3F8E030084A43F004
:1006C0001003C2F8E030064BD3F8E03003F010031B
:1006D0007B607B6800BF1C37BD465DF8047B7047BC
:1006E0000044025880B582B000AF0C4BD3F8F43010
:1006F0000A4A43F00203C2F8F430084BD3F8F4304E
:1007000003F002037B607B6800220F216FF0010081
:1007100001F03EF800BF0837BD4680BD00440258D6
:1007200080B58EB000AF78607B680F2B44D8002274
:100730007968192001F02CF8192001F043F8244AB7
:100740007B681360234BD3F8F030224A43F0010357
:10075000C2F8F0301F4BD3F8F03003F00103BB6058
:10076000BB6807F10C0207F110031146184602F0AE
:100770007FFA02F067FA03465B007B637B6B164AE5
:10078000A2FB03239B0C013B3B63144B144A1A60EE
:10079000124B40F2E732DA60104A3B6B53600F4B6A
:1007A00000221A610D4B00229A600C4804F0CEF82A
:1007B0000346002B07D101E0012305E0074804F0C0
:1007C00027F9034600E0012318463837BD4680BDAF
:1007D000080000240044025883DE1B438C000024E0
:1007E0000000014080B400AFFEE780B400AFFEE738
:1007F00080B400AFFEE780B400AFFEE780B400AF86
:10080000FEE780B400AF00BFBD465DF8047B7047D3
:1008100080B500AF024804F073F900BF80BD00BF8F
:100820008C00002480B400AF374BD3F88830364AB0
:1008300043F47003C2F88830344B1B6803F00F0395
:10084000062B07D8314B1B6823F00F032F4A43F0C8
:10085000070313602E4B1B682D4A43F001031360FE
:100860002B4B00221A612A4B1A682949294B134045
:100870000B60264B1B6803F00803002B07D0234BAB
:100880001B6823F00F03214A43F007031360204B3A
:1008900000229A611E4B0022DA611D4B00221A626F
:1008A0001B4B1D4A9A621A4B1C4ADA62184B1C4AAF
:1008B0001A63174B00225A63154B194A9A63144B5B
:1008C0000022DA63124B164A1A64114B00225A6452
:1008D0000F4B1B680E4A23F4802313600C4B00223D
:1008E0001A66104B1A68104B1340B3F1005F02D226
:1008F0000E4B01221A600E4B43F2D2021A6000BF67
:10090000BD465DF8047B704700ED00E0002000521A
:10091000004402587FEDF6EA000202020000FF01E7
:10092000800201010010005C0000FFFF08810051FF
:100930000040005280B500AF224B234A1A60214B81
:100940004FF4E1325A601F4B00229A601D4B002287
:10095000DA601C4B00221A611A4B0C225A61194BA7
:1009600000229A61174B0022DA61164B00221A62AC
:10097000144B00225A62134B00229A62114804F071
:10098000BDFA0346002B01D000F0F0FD00210D4818
:1009900005F0C5FA0346002B01D000F0E7FD002169
:1009A000084805F0FAFA0346002B01D000F0DEFDFE
:1009B000044805F07BFA0346002B01D000F0D6FD79
:1009C00000BF80BDD8000024004C004080B500AFBF
:1009D000224B234A1A60214B4FF4E1325A601F4BDD
:1009E00000229A601D4B0022DA601C4B00221A6123
:1009F0001A4B0C225A61194B00229A61174B0022A4
:100A0000DA61164B00221A62144B00225A62134B11
:100A100000229A62114804F071FA0346002B01D0BB
:100A200000F0A4FD00210D4805F079FA0346002BE3
:100A300001D000F09BFD0021084805F0AEFA034606
:100A4000002B01D000F092FD044805F02FFA034678
:100A5000002B01D000F08AFD00BF80BD6C01002496
:100A60000050004080B500AF224B234A1A60214B52
:100A70004FF4E1325A601F4B00229A601D4B002256
:100A8000DA601C4B00221A611A4B0C225A61194B76
:100A900000229A61174B0022DA61164B00221A627B
:100AA000144B00225A62134B00229A62114804F040
:100AB00025FA0346002B01D000F058FD00210D4817
:100AC00005F02DFA0346002B01D000F04FFD002168
:100AD000084805F062FA0346002B01D000F046FDFD
:100AE000044805F0E3F90346002B01D000F03EFD79
:100AF00000BF80BD000200240078004080B500AF38
:100B0000224B234A1A60214B4FF4E1325A601F4BAB
:100B100000229A601D4B0022DA601C4B00221A61F1
:100B20001A4B0C225A61194B00229A61174B002272
:100B3000DA61164B00221A62144B00225A62134BE0
:100B400000229A62114804F0D9F90346002B01D023
:100B500000F00CFD00210D4805F0E1F90346002BE3
:100B600001D000F003FD0021084805F016FA034605
:100B7000002B01D000F0FAFC044805F097F9034679
:100B8000002B01D000F0F2FC00BF80BD94020024D5
:100B9000007C004080B500AF224B234A1A60214BF5
:100BA0004FF4E1325A601F4B00229A601D4B002225
:100BB000DA601C4B00221A611A4B0C225A61194B45
:100BC00000229A61174B0022DA61164B00221A624A
:100BD000144B00225A62134B00229A62114804F00F
:100BE0008DF90346002B01D000F0C0FC00210D4818
:100BF00005F095F90346002B01D000F0B7FC002169
:100C0000084805F0CAF90346002B01D000F0AEFCFD
:100C1000044805F04BF90346002B01D000F0A6FC78
:100C200000BF80BD280300240010014080B500AF44
:100C3000224B234A1A60214B4FF4E1325A601F4B7A
:100C400000229A601D4B0022DA601C4B00221A61C0
:100C50001A4B0C225A61194B00229A61174B002241
:100C6000DA61164B00221A62144B00225A62134BAF
:100C700000229A62114804F041F90346002B01D08A
:100C800000F074FC00210D4805F049F90346002BE3
:100C900001D000F06BFC0021084805F07EF9034606
:100CA000002B01D000F062FC044805F0FFF8034679
:100CB000002B01D000F05AFC00BF80BDBC03002413
:100CC0000044004080B500AF224B234A1A60214BFC
:100CD0004FF4E1325A601F4B00229A601D4B0022F4
:100CE000DA601C4B00221A611A4B0C225A61194B14
:100CF00000229A61174B0022DA61164B00221A6219
:100D0000144B00225A62134B00229A62114804F0DD
:100D1000F5F80346002B01D000F028FC00210D4817
:100D200005F0FDF80346002B01D000F01FFC002168
:100D3000084805F032F90346002B01D000F016FCFC
:100D4000044805F0B3F80346002B01D000F00EFC78
:100D500000BF80BD500400240048004080B500AFB3
:100D6000224B234A1A60214B4FF4E1325A601F4B49
:100D700000229A601D4B0022DA601C4B00221A618F
:100D80001A4B0C225A61194B00229A61174B002210
:100D9000DA61164B00221A62144B00225A62134B7E
:100DA00000229A62114804F0A9F80346002B01D0F2
:100DB00000F0DCFB00210D4805F0B1F80346002BE4
:100DC00001D000F0D3FB0021084805F0E6F8034607
:100DD000002B01D000F0CAFB044805F067F8034679
:100DE000002B01D000F0C2FB00BF80BDE404002452
:100DF0000014014080B5C8B000AF07F59073A3F5AB
:100E00008E73186007F5867300221A605A609A6024
:100E1000DA601A6107F14803C0220021184605F084
:100E20009BFB07F59073A3F58E731B681B68CA4A7A
:100E3000934246D14FF002024FF00003C7E912235C
:100E40000023C7F8C03007F14803184601F052FFED
:100E50000346002B01D000F089FBC04BD3F8E830EB
:100E6000BE4A43F40023C2F8E830BC4BD3F8E83064
:100E700003F400237B647B6CB84BD3F8E030B74AB3
:100E800043F00103C2F8E030B44BD3F8E03003F094
:100E900001033B643B6C0323C7F80C310223C7F802
:100EA00010310023C7F814310023C7F81831082384
:100EB000C7F81C3107F586731946A94800F008FDEC
:100EC0007FE207F59073A3F58E731B681B68A54A34
:100ED000934247D14FF002024FF00003C7E91223BB
:100EE0000023C7F8C03007F14803184601F002FF9D
:100EF0000346002B01D000F039FB984BD3F8E830C3
:100F0000964A43F48013C2F8E830944BD3F8E830A3
:100F100003F48013FB63FB6B904BD3F8E0308F4AF4
:100F200043F00203C2F8E0308C4BD3F8E03003F01A
:100F30000203BB63BB6B4FF44053C7F80C31022371
:100F4000C7F810310023C7F814310023C7F818314F
:100F50000E23C7F81C3107F586731946824800F046
:100F6000B7FC2EE207F59073A3F58E731B681B6820
:100F70007E4A934246D14FF002024FF00003C7E988
:100F800012230023C7F8C03007F14803184601F0C8
:100F9000B1FE0346002B01D000F0E8FA6F4BD3F806
:100FA000E8306E4A43F08043C2F8E8306B4BD3F828
:100FB000E83003F080437B637B6B684BD3F8E03011
:100FC000664A43F02003C2F8E030644BD3F8E030C7
:100FD00003F020033B633B6BC023C7F80C310223B3
:100FE000C7F810310023C7F814310023C7F81831AF
:100FF0000723C7F81C3107F5867319465C4800F0D3
:1010000067FCDEE107F59073A3F58E731B681B6820
:10101000584A934246D14FF002024FF00003C7E90D
:1010200012230023C7F8C03007F14803184601F027
:1010300061FE0346002B01D000F098FA474BD3F82D
:10104000E830464A43F00043C2F8E830434BD3F857
:10105000E83003F00043FB62FB6A404BD3F8E0301A
:101060003E4A43F01003C2F8E0303C4BD3F8E03086
:1010700003F01003BB62BB6A0323C7F80C310223E1
:10108000C7F810310023C7F814310023C7F818310E
:101090000823C7F81C3107F586731946364800F057
:1010A00017FC8EE107F59073A3F58E731B681B6820
:1010B000324A934264D14FF001024FF00003C7E976
:1010C00012230023C7F8C43007F14803184601F083
:1010D00011FE0346002B01D000F048FA1F4BD3F855
:1010E000F0301E4A43F01003C2F8F0301B4BD3F827
:1010F000F03003F010037B627B6A184BD3F8E030CA
:10110000164A43F00203C2F8E030144BD3F8E03043
:1011100003F0020207F59073A3F580731A6007F5D8
:101120009073A3F580731B684FF44043C7F80C31EC
:101130000223C7F810310023C7F814310023C7F881
:1011400018310423C7F81C3107F586731946064881
:1011500000F0BEFB35E100BF004C004000440258E7
:10116000000002580050004000040258007800407F
:1011700000140258007C004000100258001001408A
:1011800007F59073A3F58E731B681B688F4A934213
:1011900056D14FF002024FF00003C7E9122300239B
:1011A000C7F8C03007F14803184601F0A3FD034615
:1011B000002B01D000F0DAF9854BD3F8E830844AEF
:1011C00043F40033C2F8E830814BD3F8E83003F43D
:1011D000003207F59073A3F582731A6007F59073D8
:1011E000A3F582731B687A4BD3F8E030784A43F05A
:1011F0000103C2F8E030764BD3F8E03003F001028F
:1012000007F59073A3F584731A6007F59073A3F53F
:1012100084731B680C23C7F80C310223C7F8103104
:101220000023C7F814310023C7F818310723C7F883
:101230001C3107F586731946664800F049FBC0E08B
:1012400007F59073A3F58E731B681B68624A93427F
:1012500057D14FF002024FF00003C7E912230023D9
:10126000C7F8C03007F14803184601F043FD0346B4
:10127000002B01D000F07AF9554BD3F8E830544AEE
:1012800043F48023C2F8E830514BD3F8E83003F43C
:10129000802207F59073A3F586731A6007F59073A3
:1012A000A3F586731B684A4BD3F8E030484A43F0F5
:1012B0000203C2F8E030464BD3F8E03003F00202FC
:1012C00007F59073A3F588731A6007F59073A3F57B
:1012D00088731B684FF44063C7F80C310223C7F8CA
:1012E00010310023C7F814310023C7F81831072341
:1012F000C7F81C3107F586731946384800F0E8FA3C
:101300005FE007F59073A3F58E731B681B68344A82
:10131000934256D14FF001024FF00003C7E9122368
:101320000023C7F8C43007F14803184601F0E2FC77
:101330000346002B01D000F019F9254BD3F8F0300B
:10134000234A43F02003C2F8F030214BD3F8F030A9
:1013500003F0200207F59073A3F58A731A6007F56E
:101360009073A3F58A731B68194BD3F8E030184AC1
:1013700043F04003C2F8E030154BD3F8E03003F0FF
:10138000400207F59073A3F58C731A6007F590730C
:10139000A3F58C731B684FF48443C7F80C31022308
:1013A000C7F810310023C7F814310023C7F81831EB
:1013B0000723C7F81C3107F586731946094800F062
:1013C00087FA00BF07F59077BD4680BD0044004016
:1013D000004402580000025800480040000402582F
:1013E000001401400018025880B500AF00F092F8D8
:1013F00000F0C2F800F014F8FFF71EF9FFF79AFAB0
:10140000FFF7E4FAFFF72EFBFFF778FBFFF7C2FBCD
:10141000FFF70CFCFFF756FCFFF7A0FCFEE700000F
:1014200080B59CB000AF07F124034C220021184680
:1014300005F092F83B1D20220021184605F08CF89B
:10144000022000F0F5FB00233B60304BDB6A2F4AA3
:1014500023F00103D3622D4BDB6A03F001033B60F1
:101460002B4B9B6923F44043294A43F48043936107
:10147000274B9B6903F440433B603B68244B9B69CB
:1014800003F40053B3F5005F14BF01230023DBB264
:10149000002B00D0F2E702237B6201233B63402351
:1014A0007B630023BB6407F12403184600F0FAFBBA
:1014B0000346002B14BF01230023DBB2002B01D015
:1014C00000F054F83F237B600023BB600023FB60E7
:1014D00000233B6100237B610023BB610023FB6190
:1014E00000233B623B1D0121184601F035F80346FD
:1014F000002B14BF01230023DBB2002B01D000F02E
:1015000035F800BF7037BD4680BD00BF00040058ED
:101510000048025880B584B000AF3B4600221A60F4
:101520005A609A60DA6000F05BF901233B70002397
:101530007B7000237B601F233B7287237B72002319
:10154000BB720023FB7201233B7301237B730023D7
:10155000BB730023FB733B46184600F079F9042067
:1015600000F056F900BF1037BD4680BD80B400AF13
:1015700072B600BFFEE7000080B582B000AF032066
:1015800000F0FBF801F09EF90246154B9B691B0A1F
:1015900003F00F031349CB5C03F01F0322FA03F39C
:1015A0007B600F4B9B6903F00F030E4AD35C03F083
:1015B0001F037A6822FA03F30B4A13600B4A7B6815
:1015C00013600F20FFF7ACF80346002B01D0012376
:1015D00002E0FFF787F8002318460837BD4680BDB4
:1015E000004402588865000804000024000000241C
:1015F00080B400AF034B1B681846BD465DF8047B02
:10160000704700BF7805002480B400AF034B1B680F
:101610001B0C1846BD465DF8047B70470010005C4B
:1016200080B485B000AF78607B6803F00703FB608F
:101630000B4BDB68BB60BA684FF6FF031340BB601F
:10164000FB681A02BB681A43064B1343BB60044A8B
:10165000BB68D36000BF1437BD465DF8047B70479C
:1016600000ED00E00000FA0580B400AF044BDB6839
:101670001B0A03F007031846BD465DF8047B70475C
:1016800000ED00E080B483B000AF0346FB80B7F903
:101690000630002B0BDBFB8803F01F020749B7F96C
:1016A00006305B09012000FA02F241F8232000BF56
:1016B0000C37BD465DF8047B704700BF00E100E0D9
:1016C00080B483B000AF03463960FB80B7F90630C1
:1016D000002B0ADB3B68DAB20C49B7F9063012017D
:1016E000D2B20B4483F800230AE03B68DAB208491F
:1016F000FB8803F00F03043B1201D2B20B441A76AD
:1017000000BF0C37BD465DF8047B704700E100E088
:1017100000ED00E080B489B000AFF860B9607A6095
:10172000FB6803F00703FB61FB69C3F10703042BAC
:1017300028BF0423BB61FB690433062B02D9FB6974
:10174000033B00E000237B614FF0FF32BB6902FAEC
:1017500003F3DA43BB681A407B699A404FF0FF31CC
:101760007B6901FA03F3D9437B680B4013431846A6
:101770002437BD465DF8047B704780B582B000AF6A
:1017800078607868FFF74CFF00BF0837BD4680BD22
:1017900080B586B000AF0346B9607A60FB81FFF781
:1017A00063FF78617A68B9687869FFF7B3FF02462A
:1017B000B7F90E3011461846FFF782FF00BF183701
:1017C000BD4680BD80B582B000AF0346FB80B7F94F
:1017D00006301846FFF756FF00BF0837BD4680BDEC
:1017E00080B400AFBFF35F8F00BF074B5B6A064A50
:1017F00023F480335362054B00225A6000BFBD467C
:101800005DF8047B704700BF00ED00E090ED00E064
:1018100080B483B000AF78600B4A7B6843F001036B
:1018200053600A4B5B6A094A43F480335362BFF347
:101830004F8F00BFBFF36F8F00BF00BF0C37BD4697
:101840005DF8047B704700BF90ED00E000ED00E024
:1018500080B483B000AF78607B685A781B4B9A6085
:101860001A4B1B69194A23F001031361174A7B685D
:101870005B68D3607B681B7B1A077B68DB7A1B067F
:101880001A437B689B7ADB041A437B685B7B9B046F
:101890001A437B689B7B5B041A437B68DB7B1B04DE
:1018A0001A437B685B7A1B021A437B681B7A5B00D6
:1018B00013437A6812781146044A0B43136100BF40
:1018C0000C37BD465DF8047B704700BF90ED00E02B
:1018D00080B489B000AF786039600023FB61894B28
:1018E0007B6194E13B681A680121FB6901FA03F30B
:1018F00013403B613B69002B00F086813B685B68CD
:1019000003F00303012B05D03B685B6803F003037E
:10191000022B30D17B689B68BB61FB695B000322B3
:1019200002FA03F3DB43BA691340BB613B68DA6830
:10193000FB695B0002FA03F3BA691343BB617B687E
:10194000BA699A607B685B68BB610122FB6902FA35
:1019500003F3DB43BA691340BB613B685B681B0957
:1019600003F00102FB6902FA03F3BA691343BB6196
:101970007B68BA695A603B685B6803F00303032B1A
:1019800017D07B68DB68BB61FB695B00032202FA4E
:1019900003F3DB43BA691340BB613B689A68FB6998
:1019A0005B0002FA03F3BA691343BB617B68BA694F
:1019B000DA603B685B6803F00303022B23D1FB6909
:1019C000DA087B68083253F82230BB61FB6903F008
:1019D00007039B000F2202FA03F3DB43BA691340AB
:1019E000BB613B681A69FB6903F007039B0002FABD
:1019F00003F3BA691343BB61FB69DA087B680832F9
:101A0000B96943F822107B681B68BB61FB695B0006
:101A1000032202FA03F3DB43BA691340BB613B685C
:101A20005B6803F00302FB695B0002FA03F3BA6927
:101A30001343BB617B68BA691A603B685B6803F457
:101A40004033002B00F0E0802F4BD3F8F4302E4AC7
:101A500043F00203C2F8F4302B4BD3F8F43003F018
:101A60000203FB60FB68294AFB699B08023352F8BA
:101A70002330BB61FB6903F003039B000F2202FAD2
:101A800003F3DB43BA691340BB617B68204A93428E
:101A900052D07B681F4A934231D07B681E4A9342E2
:101AA0002BD07B681D4A934225D07B681C4A934209
:101AB0001FD07B681B4A934219D07B681A4A934215
:101AC00013D07B68194A93420DD07B68184A934221
:101AD00007D07B68174A934201D109232DE00A23DE
:101AE0002BE0082329E0072327E0062325E0052330
:101AF00023E0042321E003231FE002231DE0012350
:101B00001BE000BF80000058004402580004005849
:101B1000000002580004025800080258000C025845
:101B2000001002580014025800180258001C0258F5
:101B300000200258002402580023FA6902F0030230
:101B400092009340BA691343BB613849FB699B0813
:101B50000233BA6941F823204FF0B0431B68BB61E0
:101B60003B69DB43BA691340BB613B685B6803F4C4
:101B70008013002B03D0BA693B691343BB614FF05C
:101B8000B042BB6913604FF0B0435B68BB613B6917
:101B9000DB43BA691340BB613B685B6803F4001325
:101BA000002B03D0BA693B691343BB614FF0B042CD
:101BB000BB6953607B695B68BB613B69DB43BA69A6
:101BC0001340BB613B685B6803F40033002B03D018
:101BD000BA693B691343BB617B69BA695A607B6927
:101BE0001B68BB613B69DB43BA691340BB613B685F
:101BF0005B6803F48033002B03D0BA693B6913435D
:101C0000BB617B69BA691A60FB690133FB613B68A0
:101C10001A68FB6922FA03F3002B7FF463AE00BF5E
:101C200000BF2437BD465DF8047B704700040058B0
:101C300080B584B000AF7860194BDB6803F0040313
:101C4000042B0AD0164BDB6803F007037A689A422C
:101C500001D001231FE000231DE0114BDB6823F0BE
:101C600007020F497B681343CB60FFF7C1FCF860A4
:101C700009E0FFF7BDFC0246FB68D31AB3F57A7F93
:101C800001D9012307E0064B5B6803F40053B3F569
:101C9000005FEED1002318461037BD4680BD00BF5F
:101CA0000048025880B58CB000AF78607B68002B8C
:101CB00002D1012300F048BC7B681B6803F00103DC
:101CC000002B00F08880994B1B6903F03803FB62FE
:101CD000964B9B6ABB62FB6A102B07D0FB6A182BE2
:101CE00011D1BB6A03F00303022B0CD18F4B1B688D
:101CF00003F40033002B6DD07B685B68002B69D147
:101D0000012300F021BC7B685B68B3F5803F06D1FE
:101D1000864B1B68854A43F4803313602EE07B6852
:101D20005B68002B0CD1814B1B68804A23F4803305
:101D300013607E4B1B687D4A23F4802313601DE0F3
:101D40007B685B68B3F5A02F0CD1784B1B68774A92
:101D500043F480231360754B1B68744A43F480334B
:101D600013600BE0714B1B68704A23F480331360DF
:101D70006E4B1B686D4A23F4802313607B685B689D
:101D8000002B13D0FFF734FC786208E0FFF730FC3B
:101D900002467B6AD31A642B01D90323D4E3634B35
:101DA0001B6803F40033002BF0D014E0FFF720FC95
:101DB000786208E0FFF71CFC02467B6AD31A642BAA
:101DC00001D90323C0E3594B1B6803F40033002BF4
:101DD000F0D100E000BF7B681B6803F00203002B1A
:101DE00000F0CA80514B1B6903F038033B624F4B34
:101DF0009B6AFB613B6A002B07D03B6A182B56D1CC
:101E0000FB6903F00303002B51D1484B1B6803F01F
:101E10000403002B05D07B68DB68002B01D1012374
:101E200092E3424B1B6823F019027B68DB683F4951
:101E300013430B60FFF7DCFB786208E0FFF7D8FB89
:101E400002467B6AD31A022B01D903237CE3374B6A
:101E50001B6803F00403002BF0D0FFF7D5FB03460B
:101E600041F20302934217D87B681B69402B08D1CB
:101E70002E4B5B6823F47C332C4A43F400335360CD
:101E80007AE02A4B5B6823F47C327B681B691B0376
:101E9000264913434B606FE0244B5B6823F0FE42FE
:101EA0007B681B691B06214913434B6064E07B6818
:101EB000DB68002B47D01D4B1B6823F019027B68A1
:101EC000DB681A4913430B60FFF792FB786208E066
:101ED000FFF78EFB02467B6AD31A022B01D903233C
:101EE00032E3124B1B6803F00403002BF0D0FFF722
:101EF0008BFB034641F20302934219D87B681B69AE
:101F0000402B08D1094B5B6823F47C33074A43F428
:101F10000033536030E0054B5B6823F47C327B6810
:101F20001B691B03014913434B6025E00044025821
:101F30009A4B5B6823F0FE427B681B691B0697493E
:101F400013434B6018E0954B1B68944A23F0010340
:101F50001360FFF74DFB786208E0FFF749FB02468C
:101F60007B6AD31A022B01D90323EDE28B4B1B684A
:101F700003F00403002BF0D17B681B6803F010030F
:101F8000002B00F0A980854B1B6903F03803BB616F
:101F9000824B9B6A7B61BB69082B07D0BB69182BFE
:101FA0003AD17B6903F00303012B35D17B4B1B68CE
:101FB00003F48073002B05D07B68DB69802B01D094
:101FC0000123C1E2FFF720FB034641F203029342E3
:101FD00017D87B681B6A202B08D1704B5B6823F0F5
:101FE000F8436E4A43F08043536075E06B4B5B6887
:101FF00023F0F8427B681B6A9B06684913434B60D9
:102000006AE0664BDB6823F07C527B681B6A1B0628
:1020100062491343CB605FE07B68DB69002B42D0F1
:102020005E4B1B685D4A43F080031360FFF7E0FAE4
:10203000786208E0FFF7DCFA02467B6AD31A022BCB
:1020400001D9032380E2554B1B6803F48073002BF6
:10205000F0D0FFF7D9FA034641F20302934217D8B2
:102060007B681B6A202B08D14C4B5B6823F0F8433C
:102070004A4A43F0804353602EE0484B5B6823F0AC
:10208000F8427B681B6A9B06444913434B6023E07C
:10209000424BDB6823F07C527B681B6A1B063F497E
:1020A0001343CB6018E03D4B1B683C4A23F0800390
:1020B0001360FFF79DFA786208E0FFF799FA02468D
:1020C0007B6AD31A022B01D903233DE2334B1B68F1
:1020D00003F48073002BF0D17B681B6803F00803C6
:1020E000002B36D07B685B69002B19D02B4B5B6FC4
:1020F0002A4A43F001035367FFF77AFA786208E04F
:10210000FFF776FA02467B6AD31A022B01D9032322
:102110001AE2224B5B6F03F00203002BF0D018E0B1
:102120001E4B5B6F1D4A23F001035367FFF760FAF4
:10213000786208E0FFF75CFA02467B6AD31A022B4A
:1021400001D9032300E2154B5B6F03F00203002B60
:10215000F0D17B681B6803F02003002B39D07B682B
:102160009B69002B1CD00D4B1B680C4A43F4805319
:102170001360FFF73DFA786208E0FFF739FA02468C
:102180007B6AD31A022B01D90323DDE1034B1B68C1
:1021900003F40053002BF0D01BE000BF00440258B2
:1021A0009B4B1B689A4A23F480531360FFF720FA75
:1021B000786208E0FFF71CFA02467B6AD31A022B0A
:1021C00001D90323C0E1924B1B6803F40053002B99
:1021D000F0D17B681B6803F00403002B00F08180C2
:1021E0008C4B1B688B4A43F480731360FFF700FA33
:1021F000786208E0FFF7FCF902467B6AD31A642B89
:1022000001D90323A0E1834B1B6803F48073002BE7
:10221000F0D07B689B68012B06D17D4B1B6F7C4AFD
:1022200043F0010313672DE07B689B68002B0CD102
:10223000774B1B6F764A23F001031367744B1B6FB8
:10224000734A23F0040313671CE07B689B68052B2B
:102250000CD16F4B1B6F6E4A43F0040313676C4B3A
:102260001B6F6B4A43F0010313670BE0684B1B6F56
:10227000674A23F001031367654B1B6F644A23F021
:10228000040313677B689B68002B15D0FFF7B0F938
:1022900078620AE0FFF7ACF902467B6AD31A41F292
:1022A0008832934201D903234EE1594B1B6F03F04F
:1022B0000203002BEED014E0FFF79AF978620AE0EF
:1022C000FFF796F902467B6AD31A41F288329342AD
:1022D00001D9032338E14E4B1B6F03F00203002B9F
:1022E000EED17B685B6A002B00F02D81484B1B69A7
:1022F00003F03803182B00F0BD807B685B6A022B6B
:1023000040F09E80424B1B68414A23F0807313606B
:10231000FFF76EF9786208E0FFF76AF902467B6A18
:10232000D31A022B01D903230EE1394B1B6803F0AA
:102330000073002BF0D1364B9A6A374B13407A6802
:10234000916A7A68D26A12010A43314913438B6257
:102350007B681B6B013BC3F308027B685B6B013B33
:102360005B029BB21A437B689B6B013B1B0403F42B
:10237000FE031A437B68DB6B013B1B0603F0FE4345
:10238000234913430B63224BDB6A214A23F00103E9
:10239000D3621F4B5A6B214B13407A68926CD20068
:1023A0001B4913434B631A4BDB6A23F00C027B6817
:1023B0001B6C17491343CB62154BDB6A23F00202F7
:1023C0007B685B6C12491343CB62114BDB6A104A8A
:1023D00043F48033D3620E4BDB6A0D4A43F400337F
:1023E000D3620B4BDB6A0A4A43F48023D362084B67
:1023F000DB6A074A43F00103D362054B1B68044ABA
:1024000043F080731360FFF7F3F8786211E000BFC8
:1024100000440258004802580CFCFFFF0700FFFF71
:10242000FFF7E6F802467B6AD31A022B01D9032391
:102430008AE0474B1B6803F00073002BF0D082E06A
:10244000434B1B68424A23F080731360FFF7D0F8B8
:10245000786208E0FFF7CCF802467B6AD31A022BB9
:1024600001D9032370E03A4B1B6803F00073002B83
:10247000F0D168E0364B9B6A3B61354B1B6BFB60D0
:102480007B685B6A012B31D03B6903F003027B68F8
:102490009B6A9A422AD13B691B0903F03F027B6881
:1024A000DB6A9A4222D1FB68C3F308027B681B6B8C
:1024B000013B9A421AD1FB685B0A03F07F027B68FA
:1024C0005B6B013B9A4211D1FB681B0C03F07F024E
:1024D0007B689B6B013B9A4208D1FB681B0E03F0A3
:1024E0007F027B68DB6B013B9A4201D001232BE02A
:1024F000174B5B6BDB08C3F30C033B617B689B6C86
:102500003A699A421FD0124BDB6A114A23F0010349
:10251000D362FFF76DF8786200BFFFF769F80246F3
:102520007B6A9342F9D00A4B5A6B0A4B13407A6884
:10253000926CD200064913434B63054BDB6A044A95
:1025400043F00103D362002318463037BD4680BDF7
:10255000004402580700FFFF80B586B000AF7860E6
:1025600039607B68002B01D101239CE18A4B1B68F9
:1025700003F00F033A689A4210D9874B1B6823F087
:102580000F0285493B6813430B60834B1B6803F0C4
:102590000F033A689A4201D0012384E17B681B68EB
:1025A00003F00403002B10D07B681A697B4B9B69F6
:1025B00003F070039A4208D9784B9B6923F07002AC
:1025C0007B681B69754913438B617B681B6803F04B
:1025D0000803002B10D07B685A69704BDB6903F04D
:1025E00070039A4208D96D4BDB6923F070027B6857
:1025F0005B696A491343CB617B681B6803F0100376
:10260000002B10D07B689A69644BDB6903F4E063AC
:102610009A4208D9614BDB6923F4E0627B689B69CD
:102620005E491343CB617B681B6803F02003002BDA
:1026300010D07B68DA69594B1B6A03F070039A4229
:1026400008D9564B1B6A23F070027B68DB6953493B
:1026500013430B627B681B6803F00203002B10D04E
:102660007B68DA684D4B9B6903F00F039A4208D9E7
:102670004A4B9B6923F00F027B68DB684749134391
:102680008B617B681B6803F00103002B55D0434B23
:102690009B6923F470627B689B68404913438B619C
:1026A0007B685B68022B07D13C4B1B6803F400334B
:1026B000002B21D10123F6E07B685B68032B07D157
:1026C000364B1B6803F00073002B15D10123EAE0A1
:1026D0007B685B68012B07D1304B1B6803F4807368
:1026E000002B09D10123DEE02C4B1B6803F004030F
:1026F000002B01D10123D6E0284B1B6923F00702F0
:102700007B685B68254913430B61FEF771FF7861B5
:102710000AE0FEF76DFF02467B69D31A41F2883268
:10272000934201D90323BEE01C4B1B6903F038021E
:102730007B685B68DB009A42EBD17B681B6803F027
:102740000203002B10D07B68DA68144B9B6903F0FE
:102750000F039A4208D2114B9B6923F00F027B684A
:10276000DB680E4913438B610B4B1B6803F00F03AF
:102770003A689A4214D2084B1B6823F00F020649AC
:102780003B6813430B60044B1B6803F00F033A686C
:102790009A4205D0012386E00020005200440258EE
:1027A0007B681B6803F00403002B10D07B681A6958
:1027B0003F4B9B6903F070039A4208D23C4B9B69E4
:1027C00023F070027B681B69394913438B617B6876
:1027D0001B6803F00803002B10D07B685A69344B48
:1027E000DB6903F070039A4208D2314BDB6923F0B6
:1027F00070027B685B692E491343CB617B681B6861
:1028000003F01003002B10D07B689A69284BDB691A
:1028100003F4E0639A4208D2254BDB6923F4E062BB
:102820007B689B6922491343CB617B681B6803F07B
:102830002003002B10D07B68DA691D4B1B6A03F064
:1028400070039A4208D21A4B1B6A23F070027B680D
:10285000DB69174913430B6200F034F80246144B4E
:102860009B691B0A03F00F031249CB5C03F01F03A3
:1028700022FA03F33B610E4B9B6903F00F030D4AF1
:10288000D35C03F01F033A6922FA03F30A4A136088
:102890000A4A3B6913600A4B1B681846FDF740FF64
:1028A0000346FB73FB7B18461837BD4680BD00BF4F
:1028B0000044025888650008040000240000002439
:1028C0000800002480B489B000AFB34B1B6903F04B
:1028D0003803182B00F2558101A252F823F000BFF3
:1028E00045290008832B0008832B0008832B000850
:1028F000832B0008832B0008832B0008832B000800
:102900006B290008832B0008832B0008832B000809
:10291000832B0008832B0008832B0008832B0008DF
:1029200071290008832B0008832B0008832B0008E3
:10293000832B0008832B0008832B0008832B0008BF
:1029400077290008944B1B6803F02003002B09D063
:10295000914B1B68DB0803F00303904A22FA03F350
:10296000BB6111E18D4BBB610EE18D4BBB610BE196
:102970008C4BBB6108E1884B9B6A03F003037B61CE
:10298000854B9B6A1B0903F03F033B61824BDB6A6B
:1029900003F00103FB60804B5B6BDB08C3F30C03AC
:1029A000FA6802FB03F307EE903AF8EE677AC7ED98
:1029B000027A3B69002B00F0E1807B69022B00F07A
:1029C00083807B69022B00F2A1807B69002B03D0FE
:1029D0007B69012B56D099E06F4B1B6803F02003F5
:1029E000002B2DD06C4B1B68DB0803F003036B4AF4
:1029F00022FA03F37B607B6807EE903AF8EE676A91
:102A00003B6907EE903AF8EE677A86EEA77A624B5A
:102A10001B6BC3F3080307EE903AF8EE676A97ED75
:102A2000026ADFED615AC6EE257A76EEA77AF7EEF6
:102A3000006A77EEA67A67EE277AC7ED077A87E015
:102A40003B6907EE903AF8EE677ADFED586A86EE5A
:102A5000A77A514B1B6BC3F3080307EE903AF8EECD
:102A6000676A97ED026ADFED505AC6EE257A76EE78
:102A7000A77AF7EE006A77EEA67A67EE277AC7EDB7
:102A8000077A65E03B6907EE903AF8EE677ADFED8A
:102A9000486A86EEA77A404B1B6BC3F3080307EE28
:102AA000903AF8EE676A97ED026ADFED3F5AC6EE9C
:102AB000257A76EEA77AF7EE006A77EEA67A67EEC9
:102AC000277AC7ED077A43E03B6907EE903AF8EEC4
:102AD000677ADFED386A86EEA77A2F4B1B6BC3F35C
:102AE000080307EE903AF8EE676A97ED026ADFEDA9
:102AF0002E5AC6EE257A76EEA77AF7EE006A77EEC2
:102B0000A67A67EE277AC7ED077A21E03B6907EEE0
:102B1000903AF8EE677ADFED266A86EEA77A1E4BCA
:102B20001B6BC3F3080307EE903AF8EE676A97ED64
:102B3000026ADFED1D5AC6EE257A76EEA77AF7EE29
:102B4000006A77EEA67A67EE277AC7ED077A00BFAC
:102B5000114B1B6B5B0A03F07F0301333B603B6847
:102B600007EE903AB8EE677AD7ED076AC6EE877A35
:102B7000FCEEE77A17EE903ABB6105E00023BB61FB
:102B800002E0074BBB6100BFBB6918462437BD4656
:102B90005DF8047B704700BF004402580090D003EA
:102BA00000093D0040787D01000000460024744C7F
:102BB0000024744A20BCBE4B80B582B000AFFFF742
:102BC00081FE0246104B9B691B0A03F00F030F495D
:102BD000CB5C03F01F0322FA03F37B600A4B9B6973
:102BE00003F00F03094AD35C03F01F037A6822FA4B
:102BF00003F3074A1360074A7B681360044B1B68A2
:102C000018460837BD4680BD004402588865000854
:102C1000040000240000002480B500AFFFF7CCFFC3
:102C20000246064BDB691B0903F007030449CB5C32
:102C300003F01F0322FA03F3184680BD0044025834
:102C40008865000880B500AFFFF7B6FF0246064B67
:102C5000DB691B0A03F007030449CB5C03F01F0385
:102C600022FA03F3184680BD004402588865000824
:102C700080B483B000AF786039607B683F221A600F
:102C80001A4B1B6903F007027B685A60174B9B695C
:102C900003F470627B689A60144B9B6903F00F0227
:102CA0007B68DA60114B9B6903F070027B681A61E4
:102CB0000E4BDB6903F070027B685A610B4BDB69DA
:102CC00003F4E0627B689A61084B1B6A03F07002B0
:102CD0007B68DA61064B1B6803F00F023B681A60E1
:102CE00000BF0C37BD465DF8047B704700440258B6
:102CF000002000522DE9B04FCAB000AFC7F8140150
:102D0000002387F82731002387F82631D7F81431BC
:102D1000D3E9002302F00064002554EA050349D0FA
:102D2000D7F814319B6EB3F5401F2FD0B3F5401F79
:102D300028D8B3F5001F1AD0B3F5001F22D8002BF6
:102D400003D0B3F5801F07D01CE0B84BDB6AB74A4D
:102D500043F40033D3621AE0D7F814310833022168
:102D6000184601F08FFC034687F827310FE0D7F8AB
:102D7000143128330221184601F036FD034687F846
:102D8000273104E0012387F8273100E000BF97F8DE
:102D90002731002B0AD1A54B1B6D23F44011D7F826
:102DA00014319B6EA14A0B43136503E097F827315A
:102DB00087F82631D7F81431D3E9002302F480785C
:102DC0004FF0000958EA090347D0D7F814319B6D3A
:102DD000042B2AD801A252F823F000BFF12D0008DD
:102DE000FF2D0008152E0008332E0008332E000892
:102DF0008E4BDB6A8D4A43F40033D3621AE0D7F876
:102E0000143108330021184601F03CFC034687F8D2
:102E100027310FE0D7F8143128330021184601F08C
:102E2000E3FC034687F8273104E0012387F82731C4
:102E300000E000BF97F82731002B0AD17B4B1B6DB8
:102E400023F00701D7F814319B6D784A0B431365C3
:102E500003E097F8273187F82631D7F81431D3E902
:102E6000002302F4007A4FF0000B5AEA0B034CD017
:102E7000D7F81431DB6DB3F5807F30D0B3F5807FA8
:102E800029D8C02B2DD0C02B25D8802B18D0802B33
:102E900021D8002B02D0402B07D01CE0634BDB6A0B
:102EA000624A43F40033D3621CE0D7F8143108338C
:102EB0000021184601F0E6FB034687F8273111E0B0
:102EC000D7F8143128330021184601F08DFC034651
:102ED00087F8273106E0012387F8273102E000BF99
:102EE00000E000BF97F82731002B0AD14F4B1B6D34
:102EF00023F4E071D7F81431DB6D4C4A0B431365B2
:102F000003E097F8273187F82631D7F81431D3E951
:102F1000002302F48063C7F808310023C7F80C319E
:102F2000D7E942120B46134353D0D7F81431D3F8E4
:102F3000A830B3F5000F35D0B3F5000F2ED8B3F598
:102F4000C00F31D0B3F5C00F28D8B3F5800F1AD019
:102F5000B3F5800F22D8002B03D0B3F5001F07D0A4
:102F60001CE0324BDB6A314A43F40033D3621CE08D
:102F7000D7F8143108330021184601F083FB0346CB
:102F800087F8273111E0D7F814312833002118468B
:102F900001F02AFC034687F8273106E0012387F871
:102FA000273102E000BF00E000BF97F82731002B77
:102FB0000BD11E4B9B6D23F46001D7F81431D3F86D
:102FC000A8301A4A0B43936503E097F8273187F836
:102FD0002631D7F81431D3E9002302F40063C7F88F
:102FE00000310023C7F80431D7E940120B461343E0
:102FF00056D0D7F81431D3F8AC30B3F1806F38D055
:10300000B3F1806F31D8B3F1407F34D0B3F1407F5A
:103010002BD8B3F1007F1DD0B3F1007F25D8002B52
:1030200006D0B3F1807F0AD01FE000BF00440258F1
:10303000A24BDB6AA14A43F40033D3621CE0D7F809
:10304000143108330021184601F01CFB034687F8B1
:10305000273111E0D7F8143128330021184601F048
:10306000C3FB034687F8273106E0012387F82731A1
:1030700002E000BF00E000BF97F82731002B0BD122
:103080008E4B9B6D23F0E061D7F81431D3F8AC3050
:103090008A4A0B43936503E097F8273187F8263176
:1030A000D7F81431D3E9002302F00073C7F8F830E1
:1030B0000023C7F8FC30D7E93E120B4613433AD041
:1030C000D7F81431DB6C302B1FD0302B19D8202BC4
:1030D0000CD0202B15D8002B19D0102B11D1774BE9
:1030E000DB6A764A43F40033D36211E0D7F8143137
:1030F00008330221184601F0C5FA034687F8273144
:1031000006E0012387F8273102E000BF00E000BF9E
:1031100097F82731002B0AD1684BDB6C23F0300184
:10312000D7F81431DB6C654A0B43D36403E097F89E
:10313000273187F82631D7F81431D3E9002302F478
:103140008053C7F8F0300023C7F8F430D7E93C12B9
:103150000B46134351D0D7F814311B6EB3F5804F93
:1031600035D0B3F5804F2ED8B3F5405F31D0B3F5ED
:10317000405F28D8B3F5005F1AD0B3F5005F22D8BE
:10318000002B03D0B3F5805F07D01CE04B4BDB6A0C
:103190004A4A43F40033D3621CE0D7F814310833B1
:1031A0000021184601F06EFA034687F8273111E036
:1031B000D7F8143128330021184601F015FB0346D7
:1031C00087F8273106E0012387F8273102E000BFA6
:1031D00000E000BF97F82731002B0AD1374B1B6D59
:1031E00023F4E041D7F814311B6E344A0B431365C6
:1031F00003E097F8273187F82631D7F81431D3E95F
:10320000002302F40053C7F8E8300023C7F8EC307D
:10321000D7E93A120B46134356D0D7F814315B6EF8
:10322000B3F5A02F33D0B3F5A02F2CD8B3F5802F52
:103230002FD0B3F5802F26D8B3F5403F2BD0B3F570
:10324000403F20D8B3F5003F12D0B3F5003F1AD865
:10325000002B22D0B3F5803F15D1D7F814310833B5
:103260000121184601F00EFA034687F8273115E0D0
:10327000D7F8143128330121184601F0B5FA034676
:1032800087F827310AE0012387F8273106E000BFDD
:1032900004E000BF02E000BF00E000BF97F8273164
:1032A000002B0DD1054B1B6D23F4E021D7F8143111
:1032B0005B6E024A0B43136506E000BF00440258F0
:1032C00097F8273187F82631D7F81431D3E900234E
:1032D00002F48043C7F8E0300023C7F8E430D7E9B0
:1032E00038120B46134355D0D7F81431D3F8B03009
:1032F000B3F1A04F33D0B3F1A04F2CD8B3F1804F2E
:103300002FD0B3F1804F26D8B3F1405F2BD0B3F16B
:10331000405F20D8B3F1005F12D0B3F1005F1AD83C
:10332000002B22D0B3F1805F15D1D7F814310833C8
:103330000121184601F0A6F9034687F8273115E068
:10334000D7F8143128330121184601F04DFA03460D
:1033500087F827310AE0012387F8273106E000BF0C
:1033600004E000BF02E000BF00E000BF97F8273193
:10337000002B0BD1A34B9B6D23F0E041D7F8143108
:10338000D3F8B0309F4A0B43936503E097F8273199
:1033900087F82631D7F81431D3E9002302F400432B
:1033A000C7F8D8300023C7F8DC30D7E936120B460F
:1033B000134337D0D7F814311B6FB3F1005F0ED031
:1033C000B3F1005F16D8002B18D0B3F1805F11D194
:1033D0008C4BDB6A8B4A43F40033D3620FE0D7F89F
:1033E000143108330121184601F04CF9034687F8DF
:1033F000273104E0012387F8273100E000BF97F868
:103400002731002B0AD17F4B1B6D23F04051D7F899
:1034100014311B6F7B4A0B43136503E097F8273188
:1034200087F82631D7F81431D3E9002302F08073EE
:10343000C7F8D0300023C7F8D430D7E934120B4690
:10344000134339D0D7F814319B6C032B1CD801A23D
:1034500052F823F0913400086534000873340008F2
:1034600091340008674BDB6A664A43F40033D36249
:103470000FE0D7F8143108330221184601F002F9A1
:10348000034687F8273104E0012387F8273100E05D
:1034900000BF97F82731002B0AD15A4BDB6C23F081
:1034A0000301D7F814319B6C564A0B43D36403E0F5
:1034B00097F8273187F82631D7F81431D3E900235C
:1034C00002F48003C7F8C8300023C7F8CC30D7E92E
:1034D00032120B46134300F09F804B4B1B684A4A45
:1034E00043F480731360FEF783F8C7F820010BE004
:1034F000FEF77EF80246D7F82031D31A642B03D9A1
:10350000032387F8273105E03F4B1B6803F48073E2
:10351000002BEDD097F82731002B79D1394B1A6F5A
:10352000D7F81431D3F8B430534003F44073002B70
:1035300015D0344B1B6F23F44073C7F81C31314B4B
:103540001B6F304A43F4803313672E4B1B6F2D4A99
:1035500023F4803313672B4AD7F81C311367D7F84D
:103560001431D3F8B430B3F5807F18D1FEF740F8AA
:10357000C7F820010DE0FEF73BF80246D7F82031EE
:10358000D21A41F288339A4203D9032387F82731AC
:1035900005E01C4B1B6F03F00203002BEBD097F8E8
:1035A0002731002B29D1D7F81431D3F8B43003F4E4
:1035B0004073B3F5407F0ED1124B1B6923F47C514D
:1035C000D7F81431D3F8B4301A09104B13400D4A10
:1035D0000B43136105E00B4B1B690A4A23F47C5330
:1035E0001361084B196FD7F81431D3F8B430C3F313
:1035F0000B03044A0B4313670EE097F8273187F853
:10360000263109E00044025800480258CFFFFF006D
:1036100097F8273187F82631D7F81431D3E90023FA
:1036200002F00103C7F8C0300023C7F8C430D7E95F
:1036300030120B46134300F08980D7F81431DB6F4A
:10364000282B6BD801A252F823F000BF25370008C1
:103650001D3700081D3700081D3700081D370008FA
:103660001D3700081D3700081D370008F136000817
:103670001D3700081D3700081D3700081D370008DA
:103680001D3700081D3700081D37000807370008E0
:103690001D3700081D3700081D3700081D370008BA
:1036A0001D3700081D3700081D37000825370008A2
:1036B0001D3700081D3700081D3700081D3700089A
:1036C0001D3700081D3700081D3700082537000882
:1036D0001D3700081D3700081D3700081D3700087A
:1036E0001D3700081D3700081D3700082537000862
:1036F000D7F8143108330121184600F0C3FF034600
:1037000087F827310FE0D7F8143128330121184604
:1037100001F06AF8034687F8273104E0012387F8AF
:10372000273100E000BF97F82731002B0AD1BF4BAB
:103730005B6D23F03801D7F81431DB6FBB4A0B43C4
:10374000536503E097F8273187F82631D7F814310D
:10375000D3E9002302F00203C7F8B8300023C7F80A
:10376000BC30D7E92E120B46134341D0D7F81431A1
:103770009B6F052B24D801A252F823F0C93700080B
:1037800095370008AB370008C9370008C93700086B
:10379000C9370008D7F8143108330121184600F062
:1037A00071FF034687F827310FE0D7F8143128332B
:1037B0000121184601F018F8034687F8273104E084
:1037C000012387F8273100E000BF97F82731002B4D
:1037D0000AD1964B5B6D23F00701D7F814319B6F2C
:1037E000924A0B43536503E097F8273187F8263157
:1037F000D7F81431D3E9002302F00403C7F8B0303E
:103800000023C7F8B430D7E92C120B46134344D039
:10381000D7F81431D3F89430052B25D801A252F8EB
:1038200023F000BF713800083D3800085338000805
:10383000713800087138000871380008D7F8143161
:1038400008330121184600F01DFF034687F8273191
:103850000FE0D7F8143128330121184600F0C4FFD7
:10386000034687F8273104E0012387F8273100E079
:1038700000BF97F82731002B0BD16C4B9B6D23F0C9
:103880000701D7F81431D3F89430684A0B43936595
:1038900003E097F8273187F82631D7F81431D3E9B8
:1038A000002302F02003C7F8A8300023C7F8AC308B
:1038B000D7E92A120B46134355D0D7F81431D3F861
:1038C0009030B3F1A04F33D0B3F1A04F2CD8B3F167
:1038D000804F2FD0B3F1804F26D8B3F1405F2BD06B
:1038E000B3F1405F20D8B3F1005F12D0B3F1005FB5
:1038F0001AD8002B22D0B3F1805F15D1D7F814313C
:1039000008330021184600F0BDFE034687F8273132
:1039100015E0D7F8143128330221184600F064FF6F
:10392000034687F827310AE0012387F8273106E0AC
:1039300000BF04E000BF02E000BF00E000BF97F856
:103940002731002B0BD1394B5B6D23F0E041D7F8C9
:103950001431D3F89030354A0B43536503E097F8A0
:10396000273187F82631D7F81431D3E9002302F044
:103970004003C7F8A0300023C7F8A430D7E92812C5
:103980000B46134358D0D7F81431D3F89C30B3F515
:10399000A05F33D0B3F5A05F2CD8B3F5805F2FD0F4
:1039A000B3F5805F26D8B3F5406F2BD0B3F5406FE9
:1039B00020D8B3F5006F12D0B3F5006F1AD8002BE2
:1039C00022D0B3F5806F15D1D7F814310833002118
:1039D000184600F057FE034687F8273115E0D7F860
:1039E000143128330221184600F0FEFE034687F802
:1039F00027310AE0012387F8273106E000BF04E001
:103A000000BF02E000BF00E000BF97F82731002BA5
:103A10000ED1064B9B6D23F4E051D7F81431D3F847
:103A20009C30024A0B43936506E000BF00440258F5
:103A300097F8273187F82631D7F81431D3E90023D6
:103A400002F08003C7F898300023C7F89C30D7E90C
:103A500026120B46134355D0D7F81431D3F8A030B3
:103A6000B3F5204F33D0B3F5204F2CD8B3F5004F2A
:103A70002FD0B3F5004F26D8B3F5C04F2BD0B3F5F8
:103A8000C04F20D8B3F5804F12D0B3F5804F1AD86D
:103A9000002B22D0B3F5005F15D1D7F814310833CD
:103AA0000021184600F0EEFD034687F8273115E0A7
:103AB000D7F8143128330221184600F095FE03464A
:103AC00087F827310AE0012387F8273106E000BF95
:103AD00004E000BF02E000BF00E000BF97F827311C
:103AE000002B0BD1A14B9B6D23F46041D7F814310F
:103AF000D3F8A0309D4A0B43936503E097F8273134
:103B000087F82631D7F81431D3E9002302F00803EF
:103B1000C7F890300023C7F89430D7E924120B4639
:103B200013431ED0D7F81431D3F88430B3F5805F37
:103B30000CD1D7F8143128330221184600F054FE76
:103B40000346002B02D0012387F82631874B5B6D9B
:103B500023F44051D7F81431D3F88430834A0B430F
:103B60005365D7F81431D3E9002302F01003C7F8E6
:103B700088300023C7F88C30D7E922120B46134354
:103B80001ED0D7F81431D3F89830B3F5807F0CD11C
:103B9000D7F8143128330221184600F025FE0346D9
:103BA000002B02D0012387F82631704B9B6D23F444
:103BB0004071D7F81431D3F898306C4A0B439365B1
:103BC000D7F81431D3E9002302F40023C7F880307A
:103BD0000023C7F88430D7E920120B4613433ED0A8
:103BE000D7F81431D3F8A430B3F5003F22D0B3F5A1
:103BF000003F1BD8002B03D0B3F5803F0BD015E05E
:103C0000D7F8143108330021184600F03BFD034675
:103C100087F827310FE0D7F81431283302211846EE
:103C200000F0E2FD034687F8273104E0012387F81E
:103C3000273100E000BF97F82731002B0BD14B4B09
:103C40009B6D23F44031D7F81431D3F8A430474AA0
:103C50000B43936503E097F8273187F82631D7F8AF
:103C60001431D3E9002302F48023BB670023FB67F0
:103C7000D7E91E120B4613433BD0D7F81431D3F8C3
:103C80008830B3F5401F1FD0B3F5401F18D8B3F5E7
:103C9000801F03D0B3F5001F07D011E0334BDB6A60
:103CA000324A43F40033D3620FE0D7F8143128339B
:103CB0000121184600F098FD034687F8273104E0FB
:103CC000012387F8273100E000BF97F82731002B48
:103CD0000BD1264B5B6D23F44011D7F81431D3F888
:103CE0008830224A0B43536503E097F8273187F861
:103CF0002631D7F81431D3E9002302F480333B672F
:103D000000237B67D7E91C120B46134334D0D7F846
:103D100014311B6D002B03D0B3F5803F07D011E0A9
:103D2000124BDB6A114A43F40033D3620EE0D7F83A
:103D3000143108330221184600F0A4FC034687F82A
:103D4000273103E0012387F8273100BF97F8273197
:103D5000002B0DD1054BDB6C23F48031D7F81431E7
:103D60001B6D024A0B43D36406E000BF00440258B7
:103D700097F8273187F82631D7F81431D3E9002393
:103D800002F00053BB660023FB66D7E91A120B460C
:103D900013430CD0D7F8143128330221184600F011
:103DA00023FD0346002B02D0012387F82631D7F8E4
:103DB0001431D3E9002302F400333B6600237B6611
:103DC000D7E918120B46134338D0D7F81431D3F87B
:103DD0008030B3F5407F18D0B3F5407F11D8B3F5EC
:103DE000007F14D0B3F5007F0BD8002B11D0B3F5B2
:103DF000807F06D1C34BDB6AC24A43F40033D362EF
:103E000008E0012387F8273104E000BF02E000BF8B
:103E100000E000BF97F82731002B0BD1B94B5B6D49
:103E200023F44071D7F81431D3F88030B54A0B43EE
:103E3000536503E097F8273187F82631D7F8143116
:103E4000D3E9002302F48013BB650023FB65D7E9A7
:103E500016120B46134309D0AA4B1B6D23F00041E9
:103E6000D7F814315B6FA74A0B431365D7F81431A9
:103E7000D3E9002302F080533B6500237B65D7E93B
:103E800014120B4613430AD09E4B1B6923F4804146
:103E9000D7F81431D3F8B8309A4A0B431361D7F8E6
:103EA0001431D3E9002302F40013BB640023FB6444
:103EB000D7E912120B46134309D0924B1B6D23F026
:103EC0008071D7F81431DB6E8E4A0B431365D7F837
:103ED0001431D3E9002302F080433B6400237B6468
:103EE000D7E910120B4613430ED0864B1B69854A47
:103EF00023F400431361834B1969D7F81431D3F8C5
:103F0000BC30804A0B431361D7F81431D3E9002346
:103F100002F00043BB630023FB63D7E90E120B469C
:103F2000134309D0774BDB6C23F04051D7F81431A1
:103F30005B6D744A0B43D364D7F81431D3E9002383
:103F400002F400033B6300237B63D7E90C120B46AA
:103F500013430AD06B4B5B6D23F44001D7F8143147
:103F6000D3F88C30674A0B435365D7F81431D3E943
:103F700000230021B96203F00103FB62D7E90A12B2
:103F80000B46134311D0D7F81431083300211846DB
:103F900000F078FB034687F8273197F82731002B8C
:103FA00003D097F8273187F82631D7F81431D3E9B1
:103FB00000230021396203F002037B62D7E9081273
:103FC0000B46134311D0D7F814310833012118469A
:103FD00000F058FB034687F8273197F82731002B6C
:103FE00003D097F8273187F82631D7F81431D3E971
:103FF00000230021B96103F00403FB61D7E9061235
:104000000B46134311D0D7F8143108330221184658
:1040100000F038FB034687F8273197F82731002B4B
:1040200003D097F8273187F82631D7F81431D3E930
:1040300000230021396103F008037B61D7E90412F2
:104040000B46134311D0D7F81431283300211846FA
:1040500000F0CAFB034687F8273197F82731002B79
:1040600003D097F8273187F82631D7F81431D3E9F0
:1040700000230021B96003F01003FB60D7E90212AE
:104080000B46134311D0D7F81431283301211846B9
:1040900000F0AAFB034687F8273197F82731002B59
:1040A00003D097F8273187F82631D7F81431D3E9B0
:1040B00000230021396003F020037B60D7E9001260
:1040C0000B46134311D0D7F8143128330221184678
:1040D00000F08AFB034687F8273197F82731002B39
:1040E00003D097F8273187F8263197F82631002B2F
:1040F00001D1002300E00123184607F59477BD465F
:10410000BDE8B08F0044025880B500AFFEF754FD03
:104110000246064B1B6A1B0903F007030449CB5CEC
:1041200003F01F0322FA03F3184680BD004402582F
:104130008865000880B489B000AF7860A14B9B6AA5
:1041400003F00303BB619F4B9B6A1B0B03F03F0310
:104150007B619C4BDB6A1B0903F001033B61994BBC
:10416000DB6BDB08C3F30C033A6902FB03F307EED6
:10417000903AF8EE677AC7ED037A7B69002B00F07E
:104180001181BB69022B00F08380BB69022B00F216
:10419000A180BB69002B03D0BB69012B56D099E0ED
:1041A000884B1B6803F02003002B2DD0854B1B6828
:1041B000DB0803F00303844A22FA03F3BB60BB6805
:1041C00007EE903AF8EE676A7B6907EE903AF8EEF0
:1041D000677A86EEA77A7B4B9B6BC3F3080307EEE7
:1041E000903AF8EE676A97ED036ADFED785AC6EE0B
:1041F000257A76EEA77AF7EE006A77EEA67A67EE72
:10420000277AC7ED077A87E07B6907EE903AF8EEE8
:10421000677ADFED6F6A86EEA77A6A4B9B6BC3F312
:10422000080307EE903AF8EE676A97ED036ADFED50
:10423000675AC6EE257A76EEA77AF7EE006A77EE31
:10424000A67A67EE277AC7ED077A65E07B6907EE05
:10425000903AF8EE677ADFED5F6A86EEA77A594BFF
:104260009B6BC3F3080307EE903AF8EE676A97ED8D
:10427000036ADFED565AC6EE257A76EEA77AF7EE98
:10428000006A77EEA67A67EE277AC7ED077A43E0F1
:104290007B6907EE903AF8EE677ADFED4F6A86EEBB
:1042A000A77A484B9B6BC3F3080307EE903AF8EEEE
:1042B000676A97ED036ADFED455AC6EE257A76EE1A
:1042C000A77AF7EE006A77EEA67A67EE277AC7ED4F
:1042D000077A21E07B6907EE903AF8EE677ADFED26
:1042E0003D6A86EEA77A374B9B6BC3F3080307EE54
:1042F000903AF8EE676A97ED036ADFED345AC6EE3E
:10430000257A76EEA77AF7EE006A77EEA67A67EE60
:10431000277AC7ED077A00BF2A4B9B6B5B0A03F035
:104320007F0307EE903AF8EE677AB7EE007A37EE41
:10433000877AD7ED076AC6EE877AFCEEE77A17EE42
:10434000902A7B681A601F4B9B6B1B0C03F07F034A
:1043500007EE903AF8EE677AB7EE007A37EE877A92
:10436000D7ED076AC6EE877AFCEEE77A17EE902A59
:104370007B685A60134B9B6B1B0E03F07F0307EEA9
:10438000903AF8EE677AB7EE007A37EE877AD7ED93
:10439000076AC6EE877AFCEEE77A17EE902A7B680A
:1043A0009A6008E07B6800221A607B6800225A60ED
:1043B0007B6800229A6000BF2437BD465DF8047B0D
:1043C000704700BF004402580090D0030000004630
:1043D0000024744C0024744A20BCBE4B80B489B0C5
:1043E00000AF7860A14B9B6A03F00303BB619F4B56
:1043F0009B6A1B0D03F03F037B619C4BDB6A1B0A2E
:1044000003F001033B61994B5B6CDB08C3F30C03C6
:104410003A6902FB03F307EE903AF8EE677AC7EDCC
:10442000037A7B69002B00F01181BB69022B00F03D
:104430008380BB69022B00F2A180BB69002B03D0F3
:10444000BB69012B56D099E0884B1B6803F0200311
:10445000002B2DD0854B1B68DB0803F00303844A37
:1044600022FA03F3BB60BB6807EE903AF8EE676A86
:104470007B6907EE903AF8EE677A86EEA77A7B4B77
:104480001B6CC3F3080307EE903AF8EE676A97EDEA
:10449000036ADFED785AC6EE257A76EEA77AF7EE54
:1044A000006A77EEA67A67EE277AC7ED077A87E08B
:1044B0007B6907EE903AF8EE677ADFED6F6A86EE79
:1044C000A77A6A4B1B6CC3F3080307EE903AF8EE29
:1044D000676A97ED036ADFED675AC6EE257A76EED6
:1044E000A77AF7EE006A77EEA67A67EE277AC7ED2D
:1044F000077A65E07B6907EE903AF8EE677ADFEDC0
:104500005F6A86EEA77A594B1B6CC3F3080307EE6C
:10451000903AF8EE676A97ED036ADFED565AC6EEF9
:10452000257A76EEA77AF7EE006A77EEA67A67EE3E
:10453000277AC7ED077A43E07B6907EE903AF8EEF9
:10454000677ADFED4F6A86EEA77A484B1B6CC3F3A0
:10455000080307EE903AF8EE676A97ED036ADFED1D
:10456000455AC6EE257A76EEA77AF7EE006A77EE20
:10457000A67A67EE277AC7ED077A21E07B6907EE16
:10458000903AF8EE677ADFED3D6A86EEA77A374B10
:104590001B6CC3F3080307EE903AF8EE676A97EDD9
:1045A000036ADFED345AC6EE257A76EEA77AF7EE87
:1045B000006A77EEA67A67EE277AC7ED077A00BF22
:1045C0002A4B1B6C5B0A03F07F0307EE903AF8EE70
:1045D000677AB7EE007A37EE877AD7ED076AC6EECC
:1045E000877AFCEEE77A17EE902A7B681A601F4BF9
:1045F0001B6C1B0C03F07F0307EE903AF8EE677A12
:10460000B7EE007A37EE877AD7ED076AC6EE877A7B
:10461000FCEEE77A17EE902A7B685A60134B1B6C0E
:104620001B0E03F07F0307EE903AF8EE677AB7EEC1
:10463000007A37EE877AD7ED076AC6EE877AFCEE06
:10464000E77A17EE902A7B689A6008E07B68002280
:104650001A607B6800225A607B6800229A6000BF63
:104660002437BD465DF8047B704700BF0044025804
:104670000090D003000000460024744C0024744ACB
:1046800020BCBE4B80B584B000AF78603960002399
:10469000FB73534B9B6A03F00303032B01D10123EC
:1046A00099E04F4B1B684E4A23F080631360FCF780
:1046B0009FFFB86008E0FCF79BFF0246BB68D31A77
:1046C000022B01D9032386E0454B1B6803F00063EE
:1046D000002BF0D1424B9B6A23F47C327B681B6831
:1046E0001B033F4913438B627B685B68013BC3F349
:1046F00008027B689B68013B5B029BB21A437B68A4
:10470000DB68013B1B0403F4FE031A437B681B694F
:10471000013B1B0603F0FE43314913438B63304BCF
:10472000DB6A23F0C0027B685B692D491343CB62CF
:104730002B4BDB6A23F020027B689B6928491343DB
:10474000CB62274BDB6A264A23F01003D362244B4B
:10475000DA6B244B13407A68D269D20020491343A4
:10476000CB631F4BDB6A1E4A43F01003D3623B68E6
:10477000002B06D11A4BDB6A194A43F40023D3629B
:104780000FE03B68012B06D1154BDB6A144A43F45A
:104790008013D36205E0124BDB6A114A43F4001325
:1047A000D3620F4B1B680E4A43F080631360FCF723
:1047B0001FFFB86008E0FCF71BFF0246BB68D31A76
:1047C000022B01D9032306E0054B1B6803F00063AD
:1047D000002BF0D0FB7B18461037BD4680BD00BFD4
:1047E000004402580700FFFF80B584B000AF786036
:1047F00039600023FB73534B9B6A03F00303032BC5
:1048000001D1012399E04F4B1B684E4A23F080539E
:104810001360FCF7EDFEB86008E0FCF7E9FE024625
:10482000BB68D31A022B01D9032386E0454B1B68D2
:1048300003F00053002BF0D1424B9B6A23F07C72B3
:104840007B681B681B053F4913438B627B685B6871
:10485000013BC3F308027B689B68013B5B029BB290
:104860001A437B68DB68013B1B0403F4FE031A4315
:104870007B681B69013B1B0603F0FE433149134370
:104880000B64304BDB6A23F440627B685B692D4923
:104890001343CB622B4BDB6A23F400727B689B696A
:1048A00028491343CB62274BDB6A264A23F48073E3
:1048B000D362244B5A6C244B13407A68D269D200DD
:1048C000204913434B641F4BDB6A1E4A43F4807339
:1048D000D3623B68002B06D11A4BDB6A194A43F4BA
:1048E0008003D3620FE03B68012B06D1154BDB6AD6
:1048F000144A43F40003D36205E0124BDB6A114A09
:1049000043F08073D3620F4B1B680E4A43F0805311
:104910001360FCF76DFEB86008E0FCF769FE024624
:10492000BB68D31A022B01D9032306E0054B1B6891
:1049300003F00053002BF0D0FB7B18461037BD4628
:1049400080BD00BF004402580700FFFF80B582B061
:1049500000AF78607B68002B01D1012349E07B68C0
:1049600093F83D30DBB2002B06D17B68002283F840
:104970003C20786800F041F87B68022283F83D20F3
:104980007B681A687B6804331946104600F0F2F918
:104990007B68012283F848207B68012283F83E204F
:1049A0007B68012283F83F207B68012283F8402046
:1049B0007B68012283F841207B68012283F8422032
:1049C0007B68012283F843207B68012283F844201E
:1049D0007B68012283F845207B68012283F846200A
:1049E0007B68012283F847207B68012283F83D2001
:1049F000002318460837BD4680BD80B483B000AFA1
:104A0000786000BF0C37BD465DF8047B704700003E
:104A100080B485B000AF78607B6893F83D30DBB23E
:104A2000012B01D0012354E07B68022283F83D2052
:104A30007B681B68DA687B681B6842F00102DA60F9
:104A40007B681B68264A934222D07B681B68B3F1BF
:104A5000804F1DD07B681B68224A934218D07B6828
:104A60001B68214A934213D07B681B681F4A9342FC
:104A70000ED07B681B681E4A934209D07B681B6876
:104A80001C4A934204D07B681B681B4A934215D191
:104A90007B681B689A68194B1340FB60FB68062B08
:104AA00015D0FB68B3F5803F11D07B681B681A688E
:104AB0007B681B6842F001021A6008E07B681B6893
:104AC0001A687B681B6842F001021A6000E000BFB0
:104AD000002318461437BD465DF8047B704700BFBD
:104AE000000001400004004000080040000C0040AD
:104AF0000004014000180040004001400700010090
:104B000080B584B000AF78607B681B68DB68FB60B1
:104B10007B681B681B69BB60BB6803F00203002B4A
:104B200020D0FB6803F00203002B1BD07B681B68BE
:104B30006FF002021A617B6801221A777B681B689A
:104B40009B6903F00303002B03D0786800F0F3F8AF
:104B500005E0786800F0E5F8786800F0F6F87B6822
:104B600000221A77BB6803F00403002B20D0FB68F7
:104B700003F00403002B1BD07B681B686FF004025A
:104B80001A617B6802221A777B681B689B6903F4B1
:104B90004073002B03D0786800F0CDF805E078680A
:104BA00000F0BFF8786800F0D0F87B6800221A7730
:104BB000BB6803F00803002B20D0FB6803F0080358
:104BC000002B1BD07B681B686FF008021A617B68A2
:104BD00004221A777B681B68DB6903F00303002B50
:104BE00003D0786800F0A7F805E0786800F099F83D
:104BF000786800F0AAF87B6800221A77BB6803F097
:104C00001003002B20D0FB6803F01003002B1BD0F7
:104C10007B681B686FF010021A617B6808221A77A4
:104C20007B681B68DB6903F44073002B03D0786852
:104C300000F081F805E0786800F073F8786800F01B
:104C400084F87B6800221A77BB6803F00103002B0D
:104C50000CD0FB6803F00103002B07D07B681B68B6
:104C60006FF001021A61786800F051F8BB6803F038
:104C70008003002B04D1BB6803F40053002B0CD03D
:104C8000FB6803F08003002B07D07B681B686FF480
:104C900002521A61786800F01DF9BB6803F4807352
:104CA000002B0CD0FB6803F08003002B07D07B683F
:104CB0001B686FF480721A61786800F015F9BB68A0
:104CC00003F04003002B0CD0FB6803F04003002BE3
:104CD00007D07B681B686FF040021A61786800F0AB
:104CE0003EF8BB6803F02003002B0CD0FB6803F0F8
:104CF0002003002B07D07B681B686FF020021A612D
:104D0000786800F0DDF800BF1037BD4680BD80B484
:104D100083B000AF786000BF0C37BD465DF8047B00
:104D2000704780B483B000AF786000BF0C37BD46D9
:104D30005DF8047B704780B483B000AF786000BF3B
:104D40000C37BD465DF8047B704780B483B000AF7C
:104D5000786000BF0C37BD465DF8047B704780B4B7
:104D600083B000AF786000BF0C37BD465DF8047BB0
:104D70007047000080B485B000AF786039607B6810
:104D80001B68FB607B68464A934213D07B68B3F193
:104D9000804F0FD07B68434A93420BD07B68424AD6
:104DA000934207D07B68414A934203D07B68404AD4
:104DB000934208D1FB6823F07003FB603B685B689B
:104DC000FA681343FB607B68354A93421FD07B68C7
:104DD000B3F1804F1BD07B68324A934217D07B6877
:104DE000314A934213D07B68304A93420FD07B689C
:104DF0002F4A93420BD07B682E4A934207D07B68A0
:104E00002D4A934203D07B682C4A934208D1FB6819
:104E100023F44073FB603B68DB68FA681343FB6074
:104E2000FB6823F080023B685B691343FB607B688F
:104E3000FA681A603B689A687B68DA623B681A68AD
:104E40007B689A627B68164A93420FD07B68184A47
:104E500093420BD07B68174A934207D07B68164A6F
:104E6000934203D07B68154A934203D13B681A6989
:104E70007B681A637B6801225A617B681B6903F0B7
:104E80000103012B05D17B681B6923F001027B68BC
:104E90001A6100BF1437BD465DF8047B704700BF40
:104EA000000001400004004000080040000C0040E9
:104EB000000401400040014000440140004801401E
:104EC00080B483B000AF786000BF0C37BD465DF89A
:104ED000047B704780B483B000AF786000BF0C37AC
:104EE000BD465DF8047B704780B483B000AF786046
:104EF00000BF0C37BD465DF8047B704780B582B0BB
:104F000000AF78607B68002B01D1012342E07B6811
:104F1000D3F88830002B06D17B68002283F88420E8
:104F20007868FBF767FF7B682422C3F888207B68DA
:104F30001B681A687B681B6822F001021A607B6894
:104F40009B6A002B02D0786800F090FD786800F032
:104F500025F80346012B01D101231BE07B681B6868
:104F60005A687B681B6822F490425A607B681B6811
:104F70009A687B681B6822F02A029A607B681B682B
:104F80001A687B681B6842F001021A60786800F0BA
:104F90000FFE034618460837BD4680BD2DE9B04FC9
:104FA00092B000AF7861002387F842307B699A683D
:104FB0007B691B691A437B695B691A437B69DB69FF
:104FC00013437B647B691B681A68BE4B13407A6984
:104FD0001268796C0B4313607B691B685B6823F470
:104FE00040517B69DA687B691B680A435A607B69B8
:104FF0009B697B647B691B68B34A934204D07B69DD
:105000001B6A7A6C13437B647B691B689A68AF4B9D
:1050100013407A691268796C0B4393607B691B6853
:10502000DB6A23F00F017B695A6A7B691B680A43BC
:10503000DA627B691B68A64A934277D1A54B5B6D08
:1050400003F03803282B6DD801A252F823F000BFDB
:10505000F550000825510008255100082551000889
:105060002551000825510008255100082551000848
:10507000FD50000825510008255100082551000861
:105080002551000825510008255100082551000828
:105090000551000825510008255100082551000838
:1050A0002551000825510008255100082551000808
:1050B0000D51000825510008255100082551000810
:1050C00025510008255100082551000825510008E8
:1050D00015510008255100082551000825510008E8
:1050E00025510008255100082551000825510008C8
:1050F0001D510008012387F8433022E2042387F87A
:1051000043301EE2082387F843301AE2102387F861
:10511000433016E2202387F8433012E2402387F819
:1051200043300EE2802387F843300AE27B691B6834
:10513000694A934230D1674B5B6D03F00703052B3F
:1051400026D801A252F823F06151000869510008E5
:1051500071510008795100088151000889510008F7
:10516000002387F84330ECE1042387F84330E8E17B
:10517000082387F84330E4E1102387F84330E0E167
:10518000202387F84330DCE1402387F84330D8E11F
:10519000802387F84330D4E17B691B684F4A9342F0
:1051A00030D14C4B5B6D03F00703052B26D801A2D1
:1051B00052F823F0CD510008D5510008DD51000808
:1051C000E5510008ED510008F5510008002387F86B
:1051D0004330B6E1042387F84330B2E1082387F86F
:1051E0004330AEE1102387F84330AAE1202387F84B
:1051F0004330A6E1402387F84330A2E1802387F8BB
:1052000043309EE17B691B68354A934230D1314B74
:105210005B6D03F00703052B26D801A252F823F09B
:105220003952000841520008495200085152000802
:105230005952000861520008002387F8433080E18A
:10524000042387F843307CE1082387F8433078E172
:10525000102387F8433074E1202387F8433070E14E
:10526000402387F843306CE1802387F8433068E1BE
:105270007B691B681B4A934242D1164B5B6D03F05E
:105280000703052B38D801A252F823F0A5520008D5
:10529000AD520008B5520008BD520008E95200089E
:1052A000F1520008002387F843304AE1042387F8CD
:1052B000433046E1082387F8433042E1102387F862
:1052C00043303EE1F369FFCF000C0058FFF4FF11BB
:1052D00000100140004402580044004000480040D3
:1052E000004C004000500040202387F8433028E164
:1052F000402387F8433024E1802387F8433020E1BE
:105300007B691B68CB4A934276D1CB4B5B6D03F034
:105310003803282B6CD801A252F823F0C15300089F
:10532000F1530008F1530008F1530008F15300084D
:10533000F1530008F1530008F1530008C953000865
:10534000F1530008F1530008F1530008F15300082D
:10535000F1530008F1530008F1530008D15300083D
:10536000F1530008F1530008F1530008F15300080D
:10537000F1530008F1530008F1530008D953000815
:10538000F1530008F1530008F1530008F1530008ED
:10539000F1530008F1530008F1530008E1530008ED
:1053A000F1530008F1530008F1530008F1530008CD
:1053B000F1530008F1530008F1530008E9530008C5
:1053C000012387F84330BCE0042387F84330B8E07A
:1053D000082387F84330B4E0102387F84330B0E067
:1053E000202387F84330ACE0402387F84330A8E01F
:1053F000802387F84330A4E07B691B688F4A93427F
:1054000030D18D4B5B6D03F00703052B26D801A22D
:1054100052F823F02D540008355400083D5400087C
:10542000455400084D54000855540008002387F8DF
:10543000433086E0042387F8433082E0082387F86E
:1054400043307EE0102387F843307AE0202387F84A
:10545000433076E0402387F8433072E0802387F8BA
:1054600043306EE07B691B68754A934230D1724BC2
:105470005B6D03F00703052B26D801A252F823F039
:1054800099540008A1540008A9540008B154000818
:10549000B9540008C1540008002387F8433050E095
:1054A000042387F843304CE0082387F8433048E072
:1054B000102387F8433044E0202387F8433040E04E
:1054C000402387F843303CE0802387F8433038E0BE
:1054D0007B691B685B4A934230D1574B9B6D03F04D
:1054E0000703052B26D801A252F823F00555000822
:1054F0000D550008155500081D55000825550008D4
:105500002D550008022387F843301AE0042387F85A
:10551000433016E0082387F8433012E0102387F861
:1055200043300EE0202387F843300AE0402387F819
:10553000433006E0802387F8433002E0802387F879
:1055400043307B691B683F4A934240F0F88097F8EC
:105550004330202B46DC022BC0F28280023B1E2B04
:105560007ED801A252F823F0EB55000861560008DE
:10557000F35500086156000861560008615600089E
:10558000035600086156000861560008615600087D
:10559000615600086156000861560008615600080F
:1055A000135600086156000861560008615600084D
:1055B00061560008615600086156000861560008EF
:1055C00061560008615600086156000861560008DF
:1055D00061560008615600086156000861560008CF
:1055E00053560008402B37D03AE0FEF78DFDF863A4
:1055F0003CE007F124031846FEF79CFDBB6AFB6301
:1056000034E007F118031846FEF7E8FEFB69FB6378
:105610002CE0094B1B6803F02003002B16D0064B2F
:105620001B68DB0803F00303074A22FA03F3FB635A
:105630001CE000BF00140140004402580078004004
:10564000007C0040000C00580090D0039D4BFB6391
:105650000CE09D4BFB6309E04FF40043FB6305E066
:105660000023FB63012387F8423000BFFB6B002B54
:1056700000F0DE817B695B6A944A32F813301A4687
:10568000FB6BB3FBF2F33B637B695A6813465B0029
:1056900013443A6B9A4205D37B695B681B033A6BF0
:1056A0009A4203D9012387F84230C1E1FB6B002203
:1056B000BB60FA607B695B6A844A32F813309BB244
:1056C00000223B607A60D7E90023D7E90201FAF7AC
:1056D00007FE02460B46104619464FF000024FF0F7
:1056E00000030B0243EA1063020279694968490822
:1056F00000200C46054612EB040843EB05097B69C4
:105700005B6800229A46934652465B4640464946AD
:10571000FAF7E6FD02460B461346BB63BB6BB3F5D7
:10572000407F08D3BB6BB3F5801F04D27B691B6835
:10573000BA6BDA607CE1012387F8423078E17B695B
:10574000DB69B3F5004F40F0C58097F84330202B5C
:1057500048DC002B7BDB202B79D801A252F823F008
:10576000EB570008F35700084F5800084F5800083F
:10577000FB5700084F5800084F5800084F580008C2
:105780000B5800084F5800084F5800084F580008A1
:105790004F5800084F5800084F5800084F5800084D
:1057A0001B5800084F5800084F5800084F58000871
:1057B0004F5800084F5800084F5800084F5800082D
:1057C0004F5800084F5800084F5800084F5800081D
:1057D0004F5800084F5800084F5800084F5800080D
:1057E00041580008402B2ED031E0FDF715FAF86340
:1057F00033E0FDF727FAF8632FE007F1240318469A
:10580000FEF798FCBB6AFB6327E007F11803184614
:10581000FEF7E4FDFB69FB631FE02D4B1B6803F003
:105820002003002B09D02A4B1B68DB0803F003037D
:10583000244A22FA03F3FB630FE0224BFB630CE0E4
:10584000214BFB6309E04FF40043FB6305E00023B9
:10585000FB63012387F8423000BFFB6B002B00F095
:10586000E7807B695B6A194A32F813301A46FB6B92
:10587000B3FBF2F35A007B695B685B081A447B69EF
:105880005B68B2FBF3F3BB63BB6B0F2B16D9BB6B2F
:10589000B3F5803F12D2BB6B9BB223F00F03FB86A4
:1058A000BB6B5B089BB203F007039AB2FB8E1343FA
:1058B000FB867B691B68FA8EDA60B9E0012387F802
:1058C0004230B5E00090D00300093D009865000823
:1058D0000044025897F84330202B49DC002B7CDB36
:1058E000202B7AD801A252F823F000BF7759000884
:1058F0007F590008DB590008DB5900088759000868
:10590000DB590008DB590008DB59000897590008EB
:10591000DB590008DB590008DB590008DB59000897
:10592000DB590008DB590008DB590008A7590008BB
:10593000DB590008DB590008DB590008DB59000877
:10594000DB590008DB590008DB590008DB59000867
:10595000DB590008DB590008DB590008DB59000857
:10596000DB590008DB590008DB590008CD59000855
:10597000402B2ED031E0FDF74FF9F86333E0FDF70F
:1059800061F9F8632FE007F124031846FEF7D2FB14
:10599000BB6AFB6327E007F118031846FEF71EFDFC
:1059A000FB69FB631FE02D4B1B6803F02003002BFA
:1059B00009D02A4B1B68DB0803F00303284A22FAAC
:1059C00003F3FB630FE0264BFB630CE0254BFB630B
:1059D00009E04FF40043FB6305E00023FB63012370
:1059E00087F8423000BFFB6B002B21D07B695B6ADC
:1059F0001D4A32F813301A46FB6BB3FBF2F27B6997
:105A00005B685B081A447B695B68B2FBF3F3BB63BA
:105A1000BB6B0F2B09D9BB6BB3F5803F05D2BB6BBA
:105A20009AB27B691B68DA6002E0012387F8423092
:105A30007B690122A3F86A207B690122A3F8682010
:105A40007B6900225A677B6900229A6797F8423087
:105A500018464837BD46BDE8B08F00BF0044025825
:105A60000090D00300093D009865000880B483B021
:105A700000AF78607B689B6A03F00803002B0AD0B4
:105A80007B681B685B6823F400417B689A6B7B68CA
:105A90001B680A435A607B689B6A03F00103002B72
:105AA0000AD07B681B685B6823F400317B68DA6A84
:105AB0007B681B680A435A607B689B6A03F0020399
:105AC000002B0AD07B681B685B6823F480317B68FD
:105AD0001A6B7B681B680A435A607B689B6A03F0F9
